{
  "_format": "hh-sol-artifact-1",
  "contractName": "NFT",
  "sourceName": "contracts/NFT.sol",
  "abi": [
    {
      "inputs": [
        {
          "internalType": "string",
          "name": "_name",
          "type": "string"
        },
        {
          "internalType": "string",
          "name": "_symbol",
          "type": "string"
        },
        {
          "internalType": "uint256",
          "name": "maxNfts",
          "type": "uint256"
        }
      ],
      "stateMutability": "nonpayable",
      "type": "constructor"
    },
    {
      "anonymous": false,
      "inputs": [
        {
          "indexed": true,
          "internalType": "address",
          "name": "owner",
          "type": "address"
        },
        {
          "indexed": true,
          "internalType": "address",
          "name": "approved",
          "type": "address"
        },
        {
          "indexed": true,
          "internalType": "uint256",
          "name": "tokenId",
          "type": "uint256"
        }
      ],
      "name": "Approval",
      "type": "event"
    },
    {
      "anonymous": false,
      "inputs": [
        {
          "indexed": true,
          "internalType": "address",
          "name": "owner",
          "type": "address"
        },
        {
          "indexed": true,
          "internalType": "address",
          "name": "operator",
          "type": "address"
        },
        {
          "indexed": false,
          "internalType": "bool",
          "name": "approved",
          "type": "bool"
        }
      ],
      "name": "ApprovalForAll",
      "type": "event"
    },
    {
      "anonymous": false,
      "inputs": [
        {
          "indexed": true,
          "internalType": "address",
          "name": "from",
          "type": "address"
        },
        {
          "indexed": true,
          "internalType": "address",
          "name": "to",
          "type": "address"
        },
        {
          "indexed": true,
          "internalType": "uint256",
          "name": "tokenId",
          "type": "uint256"
        }
      ],
      "name": "Transfer",
      "type": "event"
    },
    {
      "inputs": [
        {
          "internalType": "address",
          "name": "to",
          "type": "address"
        },
        {
          "internalType": "uint256",
          "name": "tokenId",
          "type": "uint256"
        }
      ],
      "name": "approve",
      "outputs": [],
      "stateMutability": "nonpayable",
      "type": "function"
    },
    {
      "inputs": [
        {
          "internalType": "address",
          "name": "owner",
          "type": "address"
        }
      ],
      "name": "balanceOf",
      "outputs": [
        {
          "internalType": "uint256",
          "name": "",
          "type": "uint256"
        }
      ],
      "stateMutability": "view",
      "type": "function"
    },
    {
      "inputs": [
        {
          "internalType": "uint256",
          "name": "tokenId",
          "type": "uint256"
        }
      ],
      "name": "getApproved",
      "outputs": [
        {
          "internalType": "address",
          "name": "",
          "type": "address"
        }
      ],
      "stateMutability": "view",
      "type": "function"
    },
    {
      "inputs": [],
      "name": "getMaxAmountOfNfts",
      "outputs": [
        {
          "internalType": "uint256",
          "name": "",
          "type": "uint256"
        }
      ],
      "stateMutability": "view",
      "type": "function"
    },
    {
      "inputs": [
        {
          "internalType": "address",
          "name": "owner",
          "type": "address"
        },
        {
          "internalType": "address",
          "name": "operator",
          "type": "address"
        }
      ],
      "name": "isApprovedForAll",
      "outputs": [
        {
          "internalType": "bool",
          "name": "",
          "type": "bool"
        }
      ],
      "stateMutability": "view",
      "type": "function"
    },
    {
      "inputs": [
        {
          "internalType": "address",
          "name": "_user",
          "type": "address"
        },
        {
          "internalType": "string",
          "name": "_tokenURI",
          "type": "string"
        }
      ],
      "name": "mint",
      "outputs": [],
      "stateMutability": "nonpayable",
      "type": "function"
    },
    {
      "inputs": [],
      "name": "name",
      "outputs": [
        {
          "internalType": "string",
          "name": "",
          "type": "string"
        }
      ],
      "stateMutability": "view",
      "type": "function"
    },
    {
      "inputs": [
        {
          "internalType": "uint256",
          "name": "tokenId",
          "type": "uint256"
        }
      ],
      "name": "ownerOf",
      "outputs": [
        {
          "internalType": "address",
          "name": "",
          "type": "address"
        }
      ],
      "stateMutability": "view",
      "type": "function"
    },
    {
      "inputs": [
        {
          "internalType": "address",
          "name": "from",
          "type": "address"
        },
        {
          "internalType": "address",
          "name": "to",
          "type": "address"
        },
        {
          "internalType": "uint256",
          "name": "tokenId",
          "type": "uint256"
        }
      ],
      "name": "safeTransferFrom",
      "outputs": [],
      "stateMutability": "nonpayable",
      "type": "function"
    },
    {
      "inputs": [
        {
          "internalType": "address",
          "name": "from",
          "type": "address"
        },
        {
          "internalType": "address",
          "name": "to",
          "type": "address"
        },
        {
          "internalType": "uint256",
          "name": "tokenId",
          "type": "uint256"
        },
        {
          "internalType": "bytes",
          "name": "_data",
          "type": "bytes"
        }
      ],
      "name": "safeTransferFrom",
      "outputs": [],
      "stateMutability": "nonpayable",
      "type": "function"
    },
    {
      "inputs": [
        {
          "internalType": "address",
          "name": "operator",
          "type": "address"
        },
        {
          "internalType": "bool",
          "name": "approved",
          "type": "bool"
        }
      ],
      "name": "setApprovalForAll",
      "outputs": [],
      "stateMutability": "nonpayable",
      "type": "function"
    },
    {
      "inputs": [
        {
          "internalType": "bytes4",
          "name": "interfaceId",
          "type": "bytes4"
        }
      ],
      "name": "supportsInterface",
      "outputs": [
        {
          "internalType": "bool",
          "name": "",
          "type": "bool"
        }
      ],
      "stateMutability": "view",
      "type": "function"
    },
    {
      "inputs": [],
      "name": "symbol",
      "outputs": [
        {
          "internalType": "string",
          "name": "",
          "type": "string"
        }
      ],
      "stateMutability": "view",
      "type": "function"
    },
    {
      "inputs": [
        {
          "internalType": "uint256",
          "name": "index",
          "type": "uint256"
        }
      ],
      "name": "tokenByIndex",
      "outputs": [
        {
          "internalType": "uint256",
          "name": "",
          "type": "uint256"
        }
      ],
      "stateMutability": "view",
      "type": "function"
    },
    {
      "inputs": [
        {
          "internalType": "address",
          "name": "owner",
          "type": "address"
        },
        {
          "internalType": "uint256",
          "name": "index",
          "type": "uint256"
        }
      ],
      "name": "tokenOfOwnerByIndex",
      "outputs": [
        {
          "internalType": "uint256",
          "name": "",
          "type": "uint256"
        }
      ],
      "stateMutability": "view",
      "type": "function"
    },
    {
      "inputs": [
        {
          "internalType": "uint256",
          "name": "tokenId",
          "type": "uint256"
        }
      ],
      "name": "tokenURI",
      "outputs": [
        {
          "internalType": "string",
          "name": "",
          "type": "string"
        }
      ],
      "stateMutability": "view",
      "type": "function"
    },
    {
      "inputs": [],
      "name": "totalSupply",
      "outputs": [
        {
          "internalType": "uint256",
          "name": "",
          "type": "uint256"
        }
      ],
      "stateMutability": "view",
      "type": "function"
    },
    {
      "inputs": [
        {
          "internalType": "address",
          "name": "from",
          "type": "address"
        },
        {
          "internalType": "address",
          "name": "to",
          "type": "address"
        },
        {
          "internalType": "uint256",
          "name": "tokenId",
          "type": "uint256"
        }
      ],
      "name": "transferFrom",
      "outputs": [],
      "stateMutability": "nonpayable",
      "type": "function"
    }
  ],
  "bytecode": "0x60a06040523480156200001157600080fd5b506040516200388838038062003888833981810160405281019062000037919062000306565b82828160009080519060200190620000519291906200007e565b5080600190805190602001906200006a9291906200007e565b505050806080818152505050505062000405565b8280546200008c90620003cf565b90600052602060002090601f016020900481019282620000b05760008555620000fc565b82601f10620000cb57805160ff1916838001178555620000fc565b82800160010185558215620000fc579182015b82811115620000fb578251825591602001919060010190620000de565b5b5090506200010b91906200010f565b5090565b5b808211156200012a57600081600090555060010162000110565b5090565b6000604051905090565b600080fd5b600080fd5b600080fd5b600080fd5b6000601f19601f8301169050919050565b7f4e487b7100000000000000000000000000000000000000000000000000000000600052604160045260246000fd5b62000197826200014c565b810181811067ffffffffffffffff82111715620001b957620001b86200015d565b5b80604052505050565b6000620001ce6200012e565b9050620001dc82826200018c565b919050565b600067ffffffffffffffff821115620001ff57620001fe6200015d565b5b6200020a826200014c565b9050602081019050919050565b60005b83811015620002375780820151818401526020810190506200021a565b8381111562000247576000848401525b50505050565b6000620002646200025e84620001e1565b620001c2565b90508281526020810184848401111562000283576200028262000147565b5b6200029084828562000217565b509392505050565b600082601f830112620002b057620002af62000142565b5b8151620002c28482602086016200024d565b91505092915050565b6000819050919050565b620002e081620002cb565b8114620002ec57600080fd5b50565b6000815190506200030081620002d5565b92915050565b60008060006060848603121562000322576200032162000138565b5b600084015167ffffffffffffffff8111156200034357620003426200013d565b5b620003518682870162000298565b935050602084015167ffffffffffffffff8111156200037557620003746200013d565b5b620003838682870162000298565b92505060406200039686828701620002ef565b9150509250925092565b7f4e487b7100000000000000000000000000000000000000000000000000000000600052602260045260246000fd5b60006002820490506001821680620003e857607f821691505b60208210811415620003ff57620003fe620003a0565b5b50919050565b60805161346062000428600039600081816107a30152610a4f01526134606000f3fe608060405234801561001057600080fd5b50600436106101165760003560e01c806357e2a4a5116100a2578063a22cb46511610071578063a22cb46514610307578063b88d4fde14610323578063c87b56dd1461033f578063d0def5211461036f578063e985e9c51461038b57610116565b806357e2a4a51461026b5780636352211e1461028957806370a08231146102b957806395d89b41146102e957610116565b806318160ddd116100e957806318160ddd146101b557806323b872dd146101d35780632f745c59146101ef57806342842e0e1461021f5780634f6ccce71461023b57610116565b806301ffc9a71461011b57806306fdde031461014b578063081812fc14610169578063095ea7b314610199575b600080fd5b6101356004803603810190610130919061206f565b6103bb565b60405161014291906120b7565b60405180910390f35b6101536103cd565b604051610160919061216b565b60405180910390f35b610183600480360381019061017e91906121c3565b61045f565b6040516101909190612231565b60405180910390f35b6101b360048036038101906101ae9190612278565b6104e4565b005b6101bd6105fc565b6040516101ca91906122c7565b60405180910390f35b6101ed60048036038101906101e891906122e2565b610609565b005b61020960048036038101906102049190612278565b610669565b60405161021691906122c7565b60405180910390f35b610239600480360381019061023491906122e2565b61070e565b005b610255600480360381019061025091906121c3565b61072e565b60405161026291906122c7565b60405180910390f35b61027361079f565b60405161028091906122c7565b60405180910390f35b6102a3600480360381019061029e91906121c3565b6107c7565b6040516102b09190612231565b60405180910390f35b6102d360048036038101906102ce9190612335565b610879565b6040516102e091906122c7565b60405180910390f35b6102f1610931565b6040516102fe919061216b565b60405180910390f35b610321600480360381019061031c919061238e565b6109c3565b005b61033d60048036038101906103389190612503565b6109d9565b005b610359600480360381019061035491906121c3565b610a3b565b604051610366919061216b565b60405180910390f35b61038960048036038101906103849190612627565b610a4d565b005b6103a560048036038101906103a09190612683565b610aa5565b6040516103b291906120b7565b60405180910390f35b60006103c682610b39565b9050919050565b6060600080546103dc906126f2565b80601f0160208091040260200160405190810160405280929190818152602001828054610408906126f2565b80156104555780601f1061042a57610100808354040283529160200191610455565b820191906000526020600020905b81548152906001019060200180831161043857829003601f168201915b5050505050905090565b600061046a82610bb3565b6104a9576040517f08c379a00000000000000000000000000000000000000000000000000000000081526004016104a090612796565b60405180910390fd5b6004600083815260200190815260200160002060009054906101000a900473ffffffffffffffffffffffffffffffffffffffff169050919050565b60006104ef826107c7565b90508073ffffffffffffffffffffffffffffffffffffffff168373ffffffffffffffffffffffffffffffffffffffff161415610560576040517f08c379a000000000000000000000000000000000000000000000000000000000815260040161055790612828565b60405180910390fd5b8073ffffffffffffffffffffffffffffffffffffffff1661057f610c1f565b73ffffffffffffffffffffffffffffffffffffffff1614806105ae57506105ad816105a8610c1f565b610aa5565b5b6105ed576040517f08c379a00000000000000000000000000000000000000000000000000000000081526004016105e4906128ba565b60405180910390fd5b6105f78383610c27565b505050565b6000600880549050905090565b61061a610614610c1f565b82610ce0565b610659576040517f08c379a00000000000000000000000000000000000000000000000000000000081526004016106509061294c565b60405180910390fd5b610664838383610dbe565b505050565b600061067483610879565b82106106b5576040517f08c379a00000000000000000000000000000000000000000000000000000000081526004016106ac906129de565b60405180910390fd5b600660008473ffffffffffffffffffffffffffffffffffffffff1673ffffffffffffffffffffffffffffffffffffffff168152602001908152602001600020600083815260200190815260200160002054905092915050565b610729838383604051806020016040528060008152506109d9565b505050565b60006107386105fc565b8210610779576040517f08c379a000000000000000000000000000000000000000000000000000000000815260040161077090612a70565b60405180910390fd5b6008828154811061078d5761078c612a90565b5b90600052602060002001549050919050565b60007f0000000000000000000000000000000000000000000000000000000000000000905090565b6000806002600084815260200190815260200160002060009054906101000a900473ffffffffffffffffffffffffffffffffffffffff169050600073ffffffffffffffffffffffffffffffffffffffff168173ffffffffffffffffffffffffffffffffffffffff161415610870576040517f08c379a000000000000000000000000000000000000000000000000000000000815260040161086790612b31565b60405180910390fd5b80915050919050565b60008073ffffffffffffffffffffffffffffffffffffffff168273ffffffffffffffffffffffffffffffffffffffff1614156108ea576040517f08c379a00000000000000000000000000000000000000000000000000000000081526004016108e190612bc3565b60405180910390fd5b600360008373ffffffffffffffffffffffffffffffffffffffff1673ffffffffffffffffffffffffffffffffffffffff168152602001908152602001600020549050919050565b606060018054610940906126f2565b80601f016020809104026020016040519081016040528092919081815260200182805461096c906126f2565b80156109b95780601f1061098e576101008083540402835291602001916109b9565b820191906000526020600020905b81548152906001019060200180831161099c57829003601f168201915b5050505050905090565b6109d56109ce610c1f565b8383611025565b5050565b6109ea6109e4610c1f565b83610ce0565b610a29576040517f08c379a0000000000000000000000000000000000000000000000000000000008152600401610a209061294c565b60405180910390fd5b610a3584848484611192565b50505050565b6060610a46826111ee565b9050919050565b7f0000000000000000000000000000000000000000000000000000000000000000610a766105fc565b10610a8057600080fd5b6000610a8a6105fc565b9050610a968382611340565b610aa0818361135e565b505050565b6000600560008473ffffffffffffffffffffffffffffffffffffffff1673ffffffffffffffffffffffffffffffffffffffff16815260200190815260200160002060008373ffffffffffffffffffffffffffffffffffffffff1673ffffffffffffffffffffffffffffffffffffffff16815260200190815260200160002060009054906101000a900460ff16905092915050565b60007f780e9d63000000000000000000000000000000000000000000000000000000007bffffffffffffffffffffffffffffffffffffffffffffffffffffffff1916827bffffffffffffffffffffffffffffffffffffffffffffffffffffffff19161480610bac5750610bab826113d2565b5b9050919050565b60008073ffffffffffffffffffffffffffffffffffffffff166002600084815260200190815260200160002060009054906101000a900473ffffffffffffffffffffffffffffffffffffffff1673ffffffffffffffffffffffffffffffffffffffff1614159050919050565b600033905090565b816004600083815260200190815260200160002060006101000a81548173ffffffffffffffffffffffffffffffffffffffff021916908373ffffffffffffffffffffffffffffffffffffffff160217905550808273ffffffffffffffffffffffffffffffffffffffff16610c9a836107c7565b73ffffffffffffffffffffffffffffffffffffffff167f8c5be1e5ebec7d5bd14f71427d1e84f3dd0314c0f7b2291e5b200ac8c7c3b92560405160405180910390a45050565b6000610ceb82610bb3565b610d2a576040517f08c379a0000000000000000000000000000000000000000000000000000000008152600401610d2190612c55565b60405180910390fd5b6000610d35836107c7565b90508073ffffffffffffffffffffffffffffffffffffffff168473ffffffffffffffffffffffffffffffffffffffff161480610d775750610d768185610aa5565b5b80610db557508373ffffffffffffffffffffffffffffffffffffffff16610d9d8461045f565b73ffffffffffffffffffffffffffffffffffffffff16145b91505092915050565b8273ffffffffffffffffffffffffffffffffffffffff16610dde826107c7565b73ffffffffffffffffffffffffffffffffffffffff1614610e34576040517f08c379a0000000000000000000000000000000000000000000000000000000008152600401610e2b90612ce7565b60405180910390fd5b600073ffffffffffffffffffffffffffffffffffffffff168273ffffffffffffffffffffffffffffffffffffffff161415610ea4576040517f08c379a0000000000000000000000000000000000000000000000000000000008152600401610e9b90612d79565b60405180910390fd5b610eaf8383836114b4565b610eba600082610c27565b6001600360008573ffffffffffffffffffffffffffffffffffffffff1673ffffffffffffffffffffffffffffffffffffffff1681526020019081526020016000206000828254610f0a9190612dc8565b925050819055506001600360008473ffffffffffffffffffffffffffffffffffffffff1673ffffffffffffffffffffffffffffffffffffffff1681526020019081526020016000206000828254610f619190612dfc565b92505081905550816002600083815260200190815260200160002060006101000a81548173ffffffffffffffffffffffffffffffffffffffff021916908373ffffffffffffffffffffffffffffffffffffffff160217905550808273ffffffffffffffffffffffffffffffffffffffff168473ffffffffffffffffffffffffffffffffffffffff167fddf252ad1be2c89b69c2b068fc378daa952ba7f163c4a11628f55a4df523b3ef60405160405180910390a46110208383836114c4565b505050565b8173ffffffffffffffffffffffffffffffffffffffff168373ffffffffffffffffffffffffffffffffffffffff161415611094576040517f08c379a000000000000000000000000000000000000000000000000000000000815260040161108b90612e9e565b60405180910390fd5b80600560008573ffffffffffffffffffffffffffffffffffffffff1673ffffffffffffffffffffffffffffffffffffffff16815260200190815260200160002060008473ffffffffffffffffffffffffffffffffffffffff1673ffffffffffffffffffffffffffffffffffffffff16815260200190815260200160002060006101000a81548160ff0219169083151502179055508173ffffffffffffffffffffffffffffffffffffffff168373ffffffffffffffffffffffffffffffffffffffff167f17307eab39ab6107e8899845ad3d59bd9653f200f220920489ca2b5937696c318360405161118591906120b7565b60405180910390a3505050565b61119d848484610dbe565b6111a9848484846114c9565b6111e8576040517f08c379a00000000000000000000000000000000000000000000000000000000081526004016111df90612f30565b60405180910390fd5b50505050565b60606111f982610bb3565b611238576040517f08c379a000000000000000000000000000000000000000000000000000000000815260040161122f90612fc2565b60405180910390fd5b6000600a60008481526020019081526020016000208054611258906126f2565b80601f0160208091040260200160405190810160405280929190818152602001828054611284906126f2565b80156112d15780601f106112a6576101008083540402835291602001916112d1565b820191906000526020600020905b8154815290600101906020018083116112b457829003601f168201915b5050505050905060006112e2611660565b90506000815114156112f857819250505061133b565b60008251111561132d57808260405160200161131592919061301e565b6040516020818303038152906040529250505061133b565b61133684611677565b925050505b919050565b61135a82826040518060200160405280600081525061171e565b5050565b61136782610bb3565b6113a6576040517f08c379a000000000000000000000000000000000000000000000000000000000815260040161139d906130b4565b60405180910390fd5b80600a600084815260200190815260200160002090805190602001906113cd929190611f60565b505050565b60007f80ac58cd000000000000000000000000000000000000000000000000000000007bffffffffffffffffffffffffffffffffffffffffffffffffffffffff1916827bffffffffffffffffffffffffffffffffffffffffffffffffffffffff1916148061149d57507f5b5e139f000000000000000000000000000000000000000000000000000000007bffffffffffffffffffffffffffffffffffffffffffffffffffffffff1916827bffffffffffffffffffffffffffffffffffffffffffffffffffffffff1916145b806114ad57506114ac82611779565b5b9050919050565b6114bf8383836117e3565b505050565b505050565b60006114ea8473ffffffffffffffffffffffffffffffffffffffff166118f7565b15611653578373ffffffffffffffffffffffffffffffffffffffff1663150b7a02611513610c1f565b8786866040518563ffffffff1660e01b81526004016115359493929190613129565b602060405180830381600087803b15801561154f57600080fd5b505af192505050801561158057506040513d601f19601f8201168201806040525081019061157d919061318a565b60015b611603573d80600081146115b0576040519150601f19603f3d011682016040523d82523d6000602084013e6115b5565b606091505b506000815114156115fb576040517f08c379a00000000000000000000000000000000000000000000000000000000081526004016115f290612f30565b60405180910390fd5b805181602001fd5b63150b7a0260e01b7bffffffffffffffffffffffffffffffffffffffffffffffffffffffff1916817bffffffffffffffffffffffffffffffffffffffffffffffffffffffff191614915050611658565b600190505b949350505050565b606060405180602001604052806000815250905090565b606061168282610bb3565b6116c1576040517f08c379a00000000000000000000000000000000000000000000000000000000081526004016116b890613229565b60405180910390fd5b60006116cb611660565b905060008151116116eb5760405180602001604052806000815250611716565b806116f58461191a565b60405160200161170692919061301e565b6040516020818303038152906040525b915050919050565b6117288383611a7b565b61173560008484846114c9565b611774576040517f08c379a000000000000000000000000000000000000000000000000000000000815260040161176b90612f30565b60405180910390fd5b505050565b60007f01ffc9a7000000000000000000000000000000000000000000000000000000007bffffffffffffffffffffffffffffffffffffffffffffffffffffffff1916827bffffffffffffffffffffffffffffffffffffffffffffffffffffffff1916149050919050565b6117ee838383611c55565b600073ffffffffffffffffffffffffffffffffffffffff168373ffffffffffffffffffffffffffffffffffffffff1614156118315761182c81611c5a565b611870565b8173ffffffffffffffffffffffffffffffffffffffff168373ffffffffffffffffffffffffffffffffffffffff161461186f5761186e8382611ca3565b5b5b600073ffffffffffffffffffffffffffffffffffffffff168273ffffffffffffffffffffffffffffffffffffffff1614156118b3576118ae81611e10565b6118f2565b8273ffffffffffffffffffffffffffffffffffffffff168273ffffffffffffffffffffffffffffffffffffffff16146118f1576118f08282611ee1565b5b5b505050565b6000808273ffffffffffffffffffffffffffffffffffffffff163b119050919050565b60606000821415611962576040518060400160405280600181526020017f30000000000000000000000000000000000000000000000000000000000000008152509050611a76565b600082905060005b6000821461199457808061197d90613249565b915050600a8261198d91906132c1565b915061196a565b60008167ffffffffffffffff8111156119b0576119af6123d8565b5b6040519080825280601f01601f1916602001820160405280156119e25781602001600182028036833780820191505090505b5090505b60008514611a6f576001826119fb9190612dc8565b9150600a85611a0a91906132f2565b6030611a169190612dfc565b60f81b818381518110611a2c57611a2b612a90565b5b60200101907effffffffffffffffffffffffffffffffffffffffffffffffffffffffffffff1916908160001a905350600a85611a6891906132c1565b94506119e6565b8093505050505b919050565b600073ffffffffffffffffffffffffffffffffffffffff168273ffffffffffffffffffffffffffffffffffffffff161415611aeb576040517f08c379a0000000000000000000000000000000000000000000000000000000008152600401611ae29061336f565b60405180910390fd5b611af481610bb3565b15611b34576040517f08c379a0000000000000000000000000000000000000000000000000000000008152600401611b2b906133db565b60405180910390fd5b611b40600083836114b4565b6001600360008473ffffffffffffffffffffffffffffffffffffffff1673ffffffffffffffffffffffffffffffffffffffff1681526020019081526020016000206000828254611b909190612dfc565b92505081905550816002600083815260200190815260200160002060006101000a81548173ffffffffffffffffffffffffffffffffffffffff021916908373ffffffffffffffffffffffffffffffffffffffff160217905550808273ffffffffffffffffffffffffffffffffffffffff16600073ffffffffffffffffffffffffffffffffffffffff167fddf252ad1be2c89b69c2b068fc378daa952ba7f163c4a11628f55a4df523b3ef60405160405180910390a4611c51600083836114c4565b5050565b505050565b6008805490506009600083815260200190815260200160002081905550600881908060018154018082558091505060019003906000526020600020016000909190919091505550565b60006001611cb084610879565b611cba9190612dc8565b9050600060076000848152602001908152602001600020549050818114611d9f576000600660008673ffffffffffffffffffffffffffffffffffffffff1673ffffffffffffffffffffffffffffffffffffffff168152602001908152602001600020600084815260200190815260200160002054905080600660008773ffffffffffffffffffffffffffffffffffffffff1673ffffffffffffffffffffffffffffffffffffffff168152602001908152602001600020600084815260200190815260200160002081905550816007600083815260200190815260200160002081905550505b6007600084815260200190815260200160002060009055600660008573ffffffffffffffffffffffffffffffffffffffff1673ffffffffffffffffffffffffffffffffffffffff16815260200190815260200160002060008381526020019081526020016000206000905550505050565b60006001600880549050611e249190612dc8565b9050600060096000848152602001908152602001600020549050600060088381548110611e5457611e53612a90565b5b906000526020600020015490508060088381548110611e7657611e75612a90565b5b906000526020600020018190555081600960008381526020019081526020016000208190555060096000858152602001908152602001600020600090556008805480611ec557611ec46133fb565b5b6001900381819060005260206000200160009055905550505050565b6000611eec83610879565b905081600660008573ffffffffffffffffffffffffffffffffffffffff1673ffffffffffffffffffffffffffffffffffffffff168152602001908152602001600020600083815260200190815260200160002081905550806007600084815260200190815260200160002081905550505050565b828054611f6c906126f2565b90600052602060002090601f016020900481019282611f8e5760008555611fd5565b82601f10611fa757805160ff1916838001178555611fd5565b82800160010185558215611fd5579182015b82811115611fd4578251825591602001919060010190611fb9565b5b509050611fe29190611fe6565b5090565b5b80821115611fff576000816000905550600101611fe7565b5090565b6000604051905090565b600080fd5b600080fd5b60007fffffffff0000000000000000000000000000000000000000000000000000000082169050919050565b61204c81612017565b811461205757600080fd5b50565b60008135905061206981612043565b92915050565b6000602082840312156120855761208461200d565b5b60006120938482850161205a565b91505092915050565b60008115159050919050565b6120b18161209c565b82525050565b60006020820190506120cc60008301846120a8565b92915050565b600081519050919050565b600082825260208201905092915050565b60005b8381101561210c5780820151818401526020810190506120f1565b8381111561211b576000848401525b50505050565b6000601f19601f8301169050919050565b600061213d826120d2565b61214781856120dd565b93506121578185602086016120ee565b61216081612121565b840191505092915050565b600060208201905081810360008301526121858184612132565b905092915050565b6000819050919050565b6121a08161218d565b81146121ab57600080fd5b50565b6000813590506121bd81612197565b92915050565b6000602082840312156121d9576121d861200d565b5b60006121e7848285016121ae565b91505092915050565b600073ffffffffffffffffffffffffffffffffffffffff82169050919050565b600061221b826121f0565b9050919050565b61222b81612210565b82525050565b60006020820190506122466000830184612222565b92915050565b61225581612210565b811461226057600080fd5b50565b6000813590506122728161224c565b92915050565b6000806040838503121561228f5761228e61200d565b5b600061229d85828601612263565b92505060206122ae858286016121ae565b9150509250929050565b6122c18161218d565b82525050565b60006020820190506122dc60008301846122b8565b92915050565b6000806000606084860312156122fb576122fa61200d565b5b600061230986828701612263565b935050602061231a86828701612263565b925050604061232b868287016121ae565b9150509250925092565b60006020828403121561234b5761234a61200d565b5b600061235984828501612263565b91505092915050565b61236b8161209c565b811461237657600080fd5b50565b60008135905061238881612362565b92915050565b600080604083850312156123a5576123a461200d565b5b60006123b385828601612263565b92505060206123c485828601612379565b9150509250929050565b600080fd5b600080fd5b7f4e487b7100000000000000000000000000000000000000000000000000000000600052604160045260246000fd5b61241082612121565b810181811067ffffffffffffffff8211171561242f5761242e6123d8565b5b80604052505050565b6000612442612003565b905061244e8282612407565b919050565b600067ffffffffffffffff82111561246e5761246d6123d8565b5b61247782612121565b9050602081019050919050565b82818337600083830152505050565b60006124a66124a184612453565b612438565b9050828152602081018484840111156124c2576124c16123d3565b5b6124cd848285612484565b509392505050565b600082601f8301126124ea576124e96123ce565b5b81356124fa848260208601612493565b91505092915050565b6000806000806080858703121561251d5761251c61200d565b5b600061252b87828801612263565b945050602061253c87828801612263565b935050604061254d878288016121ae565b925050606085013567ffffffffffffffff81111561256e5761256d612012565b5b61257a878288016124d5565b91505092959194509250565b600067ffffffffffffffff8211156125a1576125a06123d8565b5b6125aa82612121565b9050602081019050919050565b60006125ca6125c584612586565b612438565b9050828152602081018484840111156125e6576125e56123d3565b5b6125f1848285612484565b509392505050565b600082601f83011261260e5761260d6123ce565b5b813561261e8482602086016125b7565b91505092915050565b6000806040838503121561263e5761263d61200d565b5b600061264c85828601612263565b925050602083013567ffffffffffffffff81111561266d5761266c612012565b5b612679858286016125f9565b9150509250929050565b6000806040838503121561269a5761269961200d565b5b60006126a885828601612263565b92505060206126b985828601612263565b9150509250929050565b7f4e487b7100000000000000000000000000000000000000000000000000000000600052602260045260246000fd5b6000600282049050600182168061270a57607f821691505b6020821081141561271e5761271d6126c3565b5b50919050565b7f4552433732313a20617070726f76656420717565727920666f72206e6f6e657860008201527f697374656e7420746f6b656e0000000000000000000000000000000000000000602082015250565b6000612780602c836120dd565b915061278b82612724565b604082019050919050565b600060208201905081810360008301526127af81612773565b9050919050565b7f4552433732313a20617070726f76616c20746f2063757272656e74206f776e6560008201527f7200000000000000000000000000000000000000000000000000000000000000602082015250565b60006128126021836120dd565b915061281d826127b6565b604082019050919050565b6000602082019050818103600083015261284181612805565b9050919050565b7f4552433732313a20617070726f76652063616c6c6572206973206e6f74206f7760008201527f6e6572206e6f7220617070726f76656420666f7220616c6c0000000000000000602082015250565b60006128a46038836120dd565b91506128af82612848565b604082019050919050565b600060208201905081810360008301526128d381612897565b9050919050565b7f4552433732313a207472616e736665722063616c6c6572206973206e6f74206f60008201527f776e6572206e6f7220617070726f766564000000000000000000000000000000602082015250565b60006129366031836120dd565b9150612941826128da565b604082019050919050565b6000602082019050818103600083015261296581612929565b9050919050565b7f455243373231456e756d657261626c653a206f776e657220696e646578206f7560008201527f74206f6620626f756e6473000000000000000000000000000000000000000000602082015250565b60006129c8602b836120dd565b91506129d38261296c565b604082019050919050565b600060208201905081810360008301526129f7816129bb565b9050919050565b7f455243373231456e756d657261626c653a20676c6f62616c20696e646578206f60008201527f7574206f6620626f756e64730000000000000000000000000000000000000000602082015250565b6000612a5a602c836120dd565b9150612a65826129fe565b604082019050919050565b60006020820190508181036000830152612a8981612a4d565b9050919050565b7f4e487b7100000000000000000000000000000000000000000000000000000000600052603260045260246000fd5b7f4552433732313a206f776e657220717565727920666f72206e6f6e657869737460008201527f656e7420746f6b656e0000000000000000000000000000000000000000000000602082015250565b6000612b1b6029836120dd565b9150612b2682612abf565b604082019050919050565b60006020820190508181036000830152612b4a81612b0e565b9050919050565b7f4552433732313a2062616c616e636520717565727920666f7220746865207a6560008201527f726f206164647265737300000000000000000000000000000000000000000000602082015250565b6000612bad602a836120dd565b9150612bb882612b51565b604082019050919050565b60006020820190508181036000830152612bdc81612ba0565b9050919050565b7f4552433732313a206f70657261746f7220717565727920666f72206e6f6e657860008201527f697374656e7420746f6b656e0000000000000000000000000000000000000000602082015250565b6000612c3f602c836120dd565b9150612c4a82612be3565b604082019050919050565b60006020820190508181036000830152612c6e81612c32565b9050919050565b7f4552433732313a207472616e736665722066726f6d20696e636f72726563742060008201527f6f776e6572000000000000000000000000000000000000000000000000000000602082015250565b6000612cd16025836120dd565b9150612cdc82612c75565b604082019050919050565b60006020820190508181036000830152612d0081612cc4565b9050919050565b7f4552433732313a207472616e7366657220746f20746865207a65726f2061646460008201527f7265737300000000000000000000000000000000000000000000000000000000602082015250565b6000612d636024836120dd565b9150612d6e82612d07565b604082019050919050565b60006020820190508181036000830152612d9281612d56565b9050919050565b7f4e487b7100000000000000000000000000000000000000000000000000000000600052601160045260246000fd5b6000612dd38261218d565b9150612dde8361218d565b925082821015612df157612df0612d99565b5b828203905092915050565b6000612e078261218d565b9150612e128361218d565b9250827fffffffffffffffffffffffffffffffffffffffffffffffffffffffffffffffff03821115612e4757612e46612d99565b5b828201905092915050565b7f4552433732313a20617070726f766520746f2063616c6c657200000000000000600082015250565b6000612e886019836120dd565b9150612e9382612e52565b602082019050919050565b60006020820190508181036000830152612eb781612e7b565b9050919050565b7f4552433732313a207472616e7366657220746f206e6f6e20455243373231526560008201527f63656976657220696d706c656d656e7465720000000000000000000000000000602082015250565b6000612f1a6032836120dd565b9150612f2582612ebe565b604082019050919050565b60006020820190508181036000830152612f4981612f0d565b9050919050565b7f45524337323155524953746f726167653a2055524920717565727920666f722060008201527f6e6f6e6578697374656e7420746f6b656e000000000000000000000000000000602082015250565b6000612fac6031836120dd565b9150612fb782612f50565b604082019050919050565b60006020820190508181036000830152612fdb81612f9f565b9050919050565b600081905092915050565b6000612ff8826120d2565b6130028185612fe2565b93506130128185602086016120ee565b80840191505092915050565b600061302a8285612fed565b91506130368284612fed565b91508190509392505050565b7f45524337323155524953746f726167653a2055524920736574206f66206e6f6e60008201527f6578697374656e7420746f6b656e000000000000000000000000000000000000602082015250565b600061309e602e836120dd565b91506130a982613042565b604082019050919050565b600060208201905081810360008301526130cd81613091565b9050919050565b600081519050919050565b600082825260208201905092915050565b60006130fb826130d4565b61310581856130df565b93506131158185602086016120ee565b61311e81612121565b840191505092915050565b600060808201905061313e6000830187612222565b61314b6020830186612222565b61315860408301856122b8565b818103606083015261316a81846130f0565b905095945050505050565b60008151905061318481612043565b92915050565b6000602082840312156131a05761319f61200d565b5b60006131ae84828501613175565b91505092915050565b7f4552433732314d657461646174613a2055524920717565727920666f72206e6f60008201527f6e6578697374656e7420746f6b656e0000000000000000000000000000000000602082015250565b6000613213602f836120dd565b915061321e826131b7565b604082019050919050565b6000602082019050818103600083015261324281613206565b9050919050565b60006132548261218d565b91507fffffffffffffffffffffffffffffffffffffffffffffffffffffffffffffffff82141561328757613286612d99565b5b600182019050919050565b7f4e487b7100000000000000000000000000000000000000000000000000000000600052601260045260246000fd5b60006132cc8261218d565b91506132d78361218d565b9250826132e7576132e6613292565b5b828204905092915050565b60006132fd8261218d565b91506133088361218d565b92508261331857613317613292565b5b828206905092915050565b7f4552433732313a206d696e7420746f20746865207a65726f2061646472657373600082015250565b60006133596020836120dd565b915061336482613323565b602082019050919050565b600060208201905081810360008301526133888161334c565b9050919050565b7f4552433732313a20746f6b656e20616c7265616479206d696e74656400000000600082015250565b60006133c5601c836120dd565b91506133d08261338f565b602082019050919050565b600060208201905081810360008301526133f4816133b8565b9050919050565b7f4e487b7100000000000000000000000000000000000000000000000000000000600052603160045260246000fdfea2646970667358221220e060735a40f402e707bd7735dc28b6058ddab9cdc5bc3f7ed93021e38a7fa0be64736f6c63430008090033",
  "linkReferences": {},
  "deployedLinkReferences": {}
}