{
  "_format": "hh-sol-artifact-1",
  "contractName": "NFTMarketplace",
  "sourceName": "contracts/NFTMarketplace.sol",
  "abi": [
    {
      "inputs": [
        {
          "internalType": "uint256",
          "name": "_platformFee",
          "type": "uint256"
        }
      ],
      "stateMutability": "nonpayable",
      "type": "constructor"
    },
    {
      "inputs": [],
      "name": "CallerIsNotOwner",
      "type": "error"
    },
    {
      "inputs": [],
      "name": "ItemAlreadyExistsInTheMarketplace",
      "type": "error"
    },
    {
      "inputs": [],
      "name": "ItemIsNotListedInTheMarketplace",
      "type": "error"
    },
    {
      "inputs": [],
      "name": "NoPaymentsAvailableToWithdraw",
      "type": "error"
    },
    {
      "inputs": [],
      "name": "OperatorNotApproved",
      "type": "error"
    },
    {
      "inputs": [],
      "name": "PaymentIsNotExact",
      "type": "error"
    },
    {
      "inputs": [],
      "name": "PriceMustBeGreaterThanZero",
      "type": "error"
    },
    {
      "inputs": [],
      "name": "ProvidedAddressDoesNotSupportERC721Interface",
      "type": "error"
    },
    {
      "inputs": [],
      "name": "SellerCannotBuyItsOwnItem",
      "type": "error"
    },
    {
      "anonymous": false,
      "inputs": [
        {
          "indexed": false,
          "internalType": "address",
          "name": "seller",
          "type": "address"
        },
        {
          "indexed": false,
          "internalType": "address",
          "name": "nftAddress",
          "type": "address"
        },
        {
          "indexed": false,
          "internalType": "uint256",
          "name": "price",
          "type": "uint256"
        },
        {
          "indexed": false,
          "internalType": "uint256",
          "name": "tokenId",
          "type": "uint256"
        }
      ],
      "name": "ItemAdded",
      "type": "event"
    },
    {
      "anonymous": false,
      "inputs": [
        {
          "indexed": false,
          "internalType": "address",
          "name": "seller",
          "type": "address"
        },
        {
          "indexed": false,
          "internalType": "uint256",
          "name": "price",
          "type": "uint256"
        },
        {
          "indexed": false,
          "internalType": "address",
          "name": "buyer",
          "type": "address"
        }
      ],
      "name": "ItemBought",
      "type": "event"
    },
    {
      "anonymous": false,
      "inputs": [
        {
          "indexed": false,
          "internalType": "address",
          "name": "nftAddress",
          "type": "address"
        },
        {
          "indexed": false,
          "internalType": "uint256",
          "name": "tokenId",
          "type": "uint256"
        }
      ],
      "name": "ItemRemoved",
      "type": "event"
    },
    {
      "anonymous": false,
      "inputs": [
        {
          "indexed": false,
          "internalType": "address",
          "name": "nftAddress",
          "type": "address"
        },
        {
          "indexed": false,
          "internalType": "uint256",
          "name": "tokenId",
          "type": "uint256"
        },
        {
          "indexed": false,
          "internalType": "uint256",
          "name": "price",
          "type": "uint256"
        }
      ],
      "name": "ItemUpdated",
      "type": "event"
    },
    {
      "anonymous": false,
      "inputs": [
        {
          "indexed": true,
          "internalType": "address",
          "name": "previousOwner",
          "type": "address"
        },
        {
          "indexed": true,
          "internalType": "address",
          "name": "newOwner",
          "type": "address"
        }
      ],
      "name": "OwnershipTransferred",
      "type": "event"
    },
    {
      "anonymous": false,
      "inputs": [],
      "name": "RoyaltyPaid",
      "type": "event"
    },
    {
      "inputs": [
        {
          "internalType": "address",
          "name": "_nftAddress",
          "type": "address"
        },
        {
          "internalType": "uint256",
          "name": "_tokenId",
          "type": "uint256"
        },
        {
          "internalType": "uint256",
          "name": "_itemPrice",
          "type": "uint256"
        }
      ],
      "name": "addItem",
      "outputs": [],
      "stateMutability": "nonpayable",
      "type": "function"
    },
    {
      "inputs": [
        {
          "internalType": "address",
          "name": "_nftAddress",
          "type": "address"
        },
        {
          "internalType": "uint256",
          "name": "_tokenId",
          "type": "uint256"
        }
      ],
      "name": "buyItem",
      "outputs": [],
      "stateMutability": "payable",
      "type": "function"
    },
    {
      "inputs": [
        {
          "internalType": "address",
          "name": "",
          "type": "address"
        },
        {
          "internalType": "uint256",
          "name": "",
          "type": "uint256"
        }
      ],
      "name": "itemByAddressAndId",
      "outputs": [
        {
          "internalType": "address",
          "name": "seller",
          "type": "address"
        },
        {
          "internalType": "uint256",
          "name": "price",
          "type": "uint256"
        }
      ],
      "stateMutability": "view",
      "type": "function"
    },
    {
      "inputs": [],
      "name": "owner",
      "outputs": [
        {
          "internalType": "address",
          "name": "",
          "type": "address"
        }
      ],
      "stateMutability": "view",
      "type": "function"
    },
    {
      "inputs": [],
      "name": "platformFee",
      "outputs": [
        {
          "internalType": "uint256",
          "name": "",
          "type": "uint256"
        }
      ],
      "stateMutability": "view",
      "type": "function"
    },
    {
      "inputs": [
        {
          "internalType": "address",
          "name": "_nftAddress",
          "type": "address"
        },
        {
          "internalType": "uint256",
          "name": "_tokenId",
          "type": "uint256"
        }
      ],
      "name": "removeItem",
      "outputs": [],
      "stateMutability": "nonpayable",
      "type": "function"
    },
    {
      "inputs": [],
      "name": "renounceOwnership",
      "outputs": [],
      "stateMutability": "nonpayable",
      "type": "function"
    },
    {
      "inputs": [
        {
          "internalType": "address",
          "name": "newOwner",
          "type": "address"
        }
      ],
      "name": "transferOwnership",
      "outputs": [],
      "stateMutability": "nonpayable",
      "type": "function"
    },
    {
      "inputs": [
        {
          "internalType": "address",
          "name": "_nftAddress",
          "type": "address"
        },
        {
          "internalType": "uint256",
          "name": "_tokenId",
          "type": "uint256"
        },
        {
          "internalType": "uint256",
          "name": "_price",
          "type": "uint256"
        }
      ],
      "name": "updateItem",
      "outputs": [],
      "stateMutability": "nonpayable",
      "type": "function"
    },
    {
      "inputs": [],
      "name": "withdrawPayments",
      "outputs": [],
      "stateMutability": "nonpayable",
      "type": "function"
    }
  ],
  "bytecode": "0x60806040523480156200001157600080fd5b5060405162001df838038062001df883398181016040528101906200003791906200017b565b60016000819055506200005f620000536200006d60201b60201c565b6200007560201b60201c565b8060048190555050620001ad565b600033905090565b6000600160009054906101000a900473ffffffffffffffffffffffffffffffffffffffff16905081600160006101000a81548173ffffffffffffffffffffffffffffffffffffffff021916908373ffffffffffffffffffffffffffffffffffffffff1602179055508173ffffffffffffffffffffffffffffffffffffffff168173ffffffffffffffffffffffffffffffffffffffff167f8be0079c531659141344cd1fd0a4f28419497f9722a3daafe3b4186f6b6457e060405160405180910390a35050565b600080fd5b6000819050919050565b620001558162000140565b81146200016157600080fd5b50565b60008151905062000175816200014a565b92915050565b6000602082840312156200019457620001936200013b565b5b6000620001a48482850162000164565b91505092915050565b611c3b80620001bd6000396000f3fe6080604052600436106100915760003560e01c80639f37092a116100595780639f37092a14610143578063ade03d8a1461015f578063c1b91dd914610188578063c809146d146101b1578063f2fde38b146101ef57610091565b806326232a2e146100965780636103d70b146100c1578063715018a6146100d8578063781c1f1d146100ef5780638da5cb5b14610118575b600080fd5b3480156100a257600080fd5b506100ab610218565b6040516100b89190611486565b60405180910390f35b3480156100cd57600080fd5b506100d661021e565b005b3480156100e457600080fd5b506100ed6103b2565b005b3480156100fb57600080fd5b5061011660048036038101906101119190611530565b61043a565b005b34801561012457600080fd5b5061012d610573565b60405161013a9190611592565b60405180910390f35b61015d600480360381019061015891906115ad565b61059d565b005b34801561016b57600080fd5b50610186600480360381019061018191906115ad565b610b42565b005b34801561019457600080fd5b506101af60048036038101906101aa9190611530565b610c93565b005b3480156101bd57600080fd5b506101d860048036038101906101d391906115ad565b61116b565b6040516101e69291906115ed565b60405180910390f35b3480156101fb57600080fd5b5061021660048036038101906102119190611616565b6111bc565b005b60045481565b60026000541415610264576040517f08c379a000000000000000000000000000000000000000000000000000000000815260040161025b906116a0565b60405180910390fd5b60026000819055506000600360003373ffffffffffffffffffffffffffffffffffffffff1673ffffffffffffffffffffffffffffffffffffffff16815260200190815260200160002054905060008114156102eb576040517ff037e01500000000000000000000000000000000000000000000000000000000815260040160405180910390fd5b6000600360003373ffffffffffffffffffffffffffffffffffffffff1673ffffffffffffffffffffffffffffffffffffffff1681526020019081526020016000208190555060003373ffffffffffffffffffffffffffffffffffffffff1682604051610356906116f1565b60006040518083038185875af1925050503d8060008114610393576040519150601f19603f3d011682016040523d82523d6000602084013e610398565b606091505b50509050806103a657600080fd5b50506001600081905550565b6103ba6112b4565b73ffffffffffffffffffffffffffffffffffffffff166103d8610573565b73ffffffffffffffffffffffffffffffffffffffff161461042e576040517f08c379a000000000000000000000000000000000000000000000000000000000815260040161042590611752565b60405180910390fd5b61043860006112bc565b565b82826000600260008473ffffffffffffffffffffffffffffffffffffffff1673ffffffffffffffffffffffffffffffffffffffff16815260200190815260200160002060008381526020019081526020016000206001015414156104ca576040517fff9abab200000000000000000000000000000000000000000000000000000000815260040160405180910390fd5b6104d383611382565b6000600260008773ffffffffffffffffffffffffffffffffffffffff1673ffffffffffffffffffffffffffffffffffffffff168152602001908152602001600020600086815260200190815260200160002090508381600101819055507f82b734916fc1640bd27e4a74f59b25fbe50fa55fa747b397b21f069067923a2686868660405161056393929190611772565b60405180910390a1505050505050565b6000600160009054906101000a900473ffffffffffffffffffffffffffffffffffffffff16905090565b81816000600260008473ffffffffffffffffffffffffffffffffffffffff1673ffffffffffffffffffffffffffffffffffffffff168152602001908152602001600020600083815260200190815260200160002060010154141561062d576040517fff9abab200000000000000000000000000000000000000000000000000000000815260040160405180910390fd5b60026000541415610673576040517f08c379a000000000000000000000000000000000000000000000000000000000815260040161066a906116a0565b60405180910390fd5b60026000819055506000600260008673ffffffffffffffffffffffffffffffffffffffff1673ffffffffffffffffffffffffffffffffffffffff16815260200190815260200160002060008581526020019081526020016000206040518060400160405290816000820160009054906101000a900473ffffffffffffffffffffffffffffffffffffffff1673ffffffffffffffffffffffffffffffffffffffff1673ffffffffffffffffffffffffffffffffffffffff1681526020016001820154815250509050610743816113c0565b61074c8161142d565b60003490506000349050600015158773ffffffffffffffffffffffffffffffffffffffff166301ffc9a7632a55205a60e01b6040518263ffffffff1660e01b815260040161079a91906117e4565b60206040518083038186803b1580156107b257600080fd5b505afa1580156107c6573d6000803e3d6000fd5b505050506040513d601f19601f820116820180604052508101906107ea9190611837565b151514610923576000808873ffffffffffffffffffffffffffffffffffffffff16632a55205a8987602001516040518363ffffffff1660e01b8152600401610833929190611864565b604080518083038186803b15801561084a57600080fd5b505afa15801561085e573d6000803e3d6000fd5b505050506040513d601f19601f8201168201806040525081019061088291906118b7565b9150915060008111156109205780600360008473ffffffffffffffffffffffffffffffffffffffff1673ffffffffffffffffffffffffffffffffffffffff16815260200190815260200160002060008282546108de9190611926565b9250508190555080836108f1919061197c565b92507fcf85b9e2de38cae459193aa0dc23f36f4a725c2f350cf6fae710935412b94c8760405160405180910390a15b50505b600060648360045461093591906119b0565b61093f9190611a39565b9050806003600061094e610573565b73ffffffffffffffffffffffffffffffffffffffff1673ffffffffffffffffffffffffffffffffffffffff168152602001908152602001600020819055508082610998919061197c565b60036000866000015173ffffffffffffffffffffffffffffffffffffffff1673ffffffffffffffffffffffffffffffffffffffff16815260200190815260200160002060008282546109ea9190611926565b925050819055508773ffffffffffffffffffffffffffffffffffffffff166342842e0e8560000151610a1a6112b4565b8a6040518463ffffffff1660e01b8152600401610a3993929190611a6a565b600060405180830381600087803b158015610a5357600080fd5b505af1158015610a67573d6000803e3d6000fd5b50505050600260008973ffffffffffffffffffffffffffffffffffffffff1673ffffffffffffffffffffffffffffffffffffffff1681526020019081526020016000206000888152602001908152602001600020600080820160006101000a81549073ffffffffffffffffffffffffffffffffffffffff0219169055600182016000905550507f6969ae94b1c7081450f5af1e29fa31cf078bd0c65efde931617b202cb9d8e0e28460000151856020015133604051610b2893929190611aa1565b60405180910390a150505050600160008190555050505050565b81816000600260008473ffffffffffffffffffffffffffffffffffffffff1673ffffffffffffffffffffffffffffffffffffffff1681526020019081526020016000206000838152602001908152602001600020600101541415610bd2576040517fff9abab200000000000000000000000000000000000000000000000000000000815260040160405180910390fd5b600260008573ffffffffffffffffffffffffffffffffffffffff1673ffffffffffffffffffffffffffffffffffffffff1681526020019081526020016000206000848152602001908152602001600020600080820160006101000a81549073ffffffffffffffffffffffffffffffffffffffff0219169055600182016000905550507f12dd6d17459a077ac7246eca5e7869f84ddb95e9ef70a0dd67b7bf6acc8f76378484604051610c859291906115ed565b60405180910390a150505050565b82826000600260008473ffffffffffffffffffffffffffffffffffffffff1673ffffffffffffffffffffffffffffffffffffffff16815260200190815260200160002060008381526020019081526020016000206040518060400160405290816000820160009054906101000a900473ffffffffffffffffffffffffffffffffffffffff1673ffffffffffffffffffffffffffffffffffffffff1673ffffffffffffffffffffffffffffffffffffffff1681526020016001820154815250509050600073ffffffffffffffffffffffffffffffffffffffff16816000015173ffffffffffffffffffffffffffffffffffffffff1614610dbe576040517feb5cd1ff00000000000000000000000000000000000000000000000000000000815260040160405180910390fd5b610dc784611382565b600015158673ffffffffffffffffffffffffffffffffffffffff166301ffc9a76380ac58cd60e01b6040518263ffffffff1660e01b8152600401610e0b91906117e4565b60206040518083038186803b158015610e2357600080fd5b505afa158015610e37573d6000803e3d6000fd5b505050506040513d601f19601f82011682018060405250810190610e5b9190611837565b15151415610e95576040517fd459125600000000000000000000000000000000000000000000000000000000815260040160405180910390fd5b6000869050610ea26112b4565b73ffffffffffffffffffffffffffffffffffffffff168173ffffffffffffffffffffffffffffffffffffffff16636352211e886040518263ffffffff1660e01b8152600401610ef19190611486565b60206040518083038186803b158015610f0957600080fd5b505afa158015610f1d573d6000803e3d6000fd5b505050506040513d601f19601f82011682018060405250810190610f419190611ad8565b73ffffffffffffffffffffffffffffffffffffffff1614610f8e576040517f6db2465f00000000000000000000000000000000000000000000000000000000815260040160405180910390fd5b8073ffffffffffffffffffffffffffffffffffffffff1663e985e9c5610fb26112b4565b306040518363ffffffff1660e01b8152600401610fd0929190611b05565b60206040518083038186803b158015610fe857600080fd5b505afa158015610ffc573d6000803e3d6000fd5b505050506040513d601f19601f820116820180604052508101906110209190611837565b611056576040517fe312900100000000000000000000000000000000000000000000000000000000815260040160405180910390fd5b60405180604001604052803373ffffffffffffffffffffffffffffffffffffffff16815260200186815250600260008973ffffffffffffffffffffffffffffffffffffffff1673ffffffffffffffffffffffffffffffffffffffff168152602001908152602001600020600088815260200190815260200160002060008201518160000160006101000a81548173ffffffffffffffffffffffffffffffffffffffff021916908373ffffffffffffffffffffffffffffffffffffffff160217905550602082015181600101559050507f658d15d8dc858355d1caf10eca0e3174999ffeb243ed74039f2982798103a1473388878960405161115a9493929190611b2e565b60405180910390a150505050505050565b6002602052816000526040600020602052806000526040600020600091509150508060000160009054906101000a900473ffffffffffffffffffffffffffffffffffffffff16908060010154905082565b6111c46112b4565b73ffffffffffffffffffffffffffffffffffffffff166111e2610573565b73ffffffffffffffffffffffffffffffffffffffff1614611238576040517f08c379a000000000000000000000000000000000000000000000000000000000815260040161122f90611752565b60405180910390fd5b600073ffffffffffffffffffffffffffffffffffffffff168173ffffffffffffffffffffffffffffffffffffffff1614156112a8576040517f08c379a000000000000000000000000000000000000000000000000000000000815260040161129f90611be5565b60405180910390fd5b6112b1816112bc565b50565b600033905090565b6000600160009054906101000a900473ffffffffffffffffffffffffffffffffffffffff16905081600160006101000a81548173ffffffffffffffffffffffffffffffffffffffff021916908373ffffffffffffffffffffffffffffffffffffffff1602179055508173ffffffffffffffffffffffffffffffffffffffff168173ffffffffffffffffffffffffffffffffffffffff167f8be0079c531659141344cd1fd0a4f28419497f9722a3daafe3b4186f6b6457e060405160405180910390a35050565b60008114156113bd576040517f23a3620900000000000000000000000000000000000000000000000000000000815260040160405180910390fd5b50565b806000015173ffffffffffffffffffffffffffffffffffffffff163373ffffffffffffffffffffffffffffffffffffffff16141561142a576040517f153ee2da00000000000000000000000000000000000000000000000000000000815260040160405180910390fd5b50565b8060200151341461146a576040517f4fbea2d000000000000000000000000000000000000000000000000000000000815260040160405180910390fd5b50565b6000819050919050565b6114808161146d565b82525050565b600060208201905061149b6000830184611477565b92915050565b600080fd5b600073ffffffffffffffffffffffffffffffffffffffff82169050919050565b60006114d1826114a6565b9050919050565b6114e1816114c6565b81146114ec57600080fd5b50565b6000813590506114fe816114d8565b92915050565b61150d8161146d565b811461151857600080fd5b50565b60008135905061152a81611504565b92915050565b600080600060608486031215611549576115486114a1565b5b6000611557868287016114ef565b93505060206115688682870161151b565b92505060406115798682870161151b565b9150509250925092565b61158c816114c6565b82525050565b60006020820190506115a76000830184611583565b92915050565b600080604083850312156115c4576115c36114a1565b5b60006115d2858286016114ef565b92505060206115e38582860161151b565b9150509250929050565b60006040820190506116026000830185611583565b61160f6020830184611477565b9392505050565b60006020828403121561162c5761162b6114a1565b5b600061163a848285016114ef565b91505092915050565b600082825260208201905092915050565b7f5265656e7472616e637947756172643a207265656e7472616e742063616c6c00600082015250565b600061168a601f83611643565b915061169582611654565b602082019050919050565b600060208201905081810360008301526116b98161167d565b9050919050565b600081905092915050565b50565b60006116db6000836116c0565b91506116e6826116cb565b600082019050919050565b60006116fc826116ce565b9150819050919050565b7f4f776e61626c653a2063616c6c6572206973206e6f7420746865206f776e6572600082015250565b600061173c602083611643565b915061174782611706565b602082019050919050565b6000602082019050818103600083015261176b8161172f565b9050919050565b60006060820190506117876000830186611583565b6117946020830185611477565b6117a16040830184611477565b949350505050565b60007fffffffff0000000000000000000000000000000000000000000000000000000082169050919050565b6117de816117a9565b82525050565b60006020820190506117f960008301846117d5565b92915050565b60008115159050919050565b611814816117ff565b811461181f57600080fd5b50565b6000815190506118318161180b565b92915050565b60006020828403121561184d5761184c6114a1565b5b600061185b84828501611822565b91505092915050565b60006040820190506118796000830185611477565b6118866020830184611477565b9392505050565b60008151905061189c816114d8565b92915050565b6000815190506118b181611504565b92915050565b600080604083850312156118ce576118cd6114a1565b5b60006118dc8582860161188d565b92505060206118ed858286016118a2565b9150509250929050565b7f4e487b7100000000000000000000000000000000000000000000000000000000600052601160045260246000fd5b60006119318261146d565b915061193c8361146d565b9250827fffffffffffffffffffffffffffffffffffffffffffffffffffffffffffffffff03821115611971576119706118f7565b5b828201905092915050565b60006119878261146d565b91506119928361146d565b9250828210156119a5576119a46118f7565b5b828203905092915050565b60006119bb8261146d565b91506119c68361146d565b9250817fffffffffffffffffffffffffffffffffffffffffffffffffffffffffffffffff04831182151516156119ff576119fe6118f7565b5b828202905092915050565b7f4e487b7100000000000000000000000000000000000000000000000000000000600052601260045260246000fd5b6000611a448261146d565b9150611a4f8361146d565b925082611a5f57611a5e611a0a565b5b828204905092915050565b6000606082019050611a7f6000830186611583565b611a8c6020830185611583565b611a996040830184611477565b949350505050565b6000606082019050611ab66000830186611583565b611ac36020830185611477565b611ad06040830184611583565b949350505050565b600060208284031215611aee57611aed6114a1565b5b6000611afc8482850161188d565b91505092915050565b6000604082019050611b1a6000830185611583565b611b276020830184611583565b9392505050565b6000608082019050611b436000830187611583565b611b506020830186611583565b611b5d6040830185611477565b611b6a6060830184611477565b95945050505050565b7f4f776e61626c653a206e6577206f776e657220697320746865207a65726f206160008201527f6464726573730000000000000000000000000000000000000000000000000000602082015250565b6000611bcf602683611643565b9150611bda82611b73565b604082019050919050565b60006020820190508181036000830152611bfe81611bc2565b905091905056fea26469706673582212208ee498685c034e93b2be171216bec80b1c55c641c780ec8f82c9959558f6393b64736f6c63430008090033",
  "linkReferences": {},
  "deployedLinkReferences": {}
}